{
  "contractName": "Airline",
  "abi": [
    {
      "constant": true,
      "inputs": [],
      "name": "chairperson",
      "outputs": [
        {
          "name": "",
          "type": "address"
        }
      ],
      "payable": false,
      "stateMutability": "view",
      "type": "function",
      "signature": "0x2e4176cf"
    },
    {
      "constant": true,
      "inputs": [
        {
          "name": "",
          "type": "address"
        }
      ],
      "name": "Airlines",
      "outputs": [
        {
          "name": "balances",
          "type": "uint256"
        },
        {
          "name": "RegisterorNot",
          "type": "bool"
        }
      ],
      "payable": false,
      "stateMutability": "view",
      "type": "function",
      "signature": "0xdd0df088"
    },
    {
      "inputs": [],
      "payable": false,
      "stateMutability": "nonpayable",
      "type": "constructor",
      "signature": "constructor"
    },
    {
      "constant": false,
      "inputs": [],
      "name": "RegisterAirline",
      "outputs": [],
      "payable": false,
      "stateMutability": "nonpayable",
      "type": "function",
      "signature": "0x42bf6444"
    },
    {
      "constant": false,
      "inputs": [
        {
          "name": "unregisterairline",
          "type": "address"
        }
      ],
      "name": "UnRegisterAirline",
      "outputs": [],
      "payable": false,
      "stateMutability": "nonpayable",
      "type": "function",
      "signature": "0x12b04a13"
    },
    {
      "constant": false,
      "inputs": [
        {
          "name": "toairline",
          "type": "address"
        },
        {
          "name": "amount",
          "type": "uint256"
        }
      ],
      "name": "request",
      "outputs": [],
      "payable": false,
      "stateMutability": "nonpayable",
      "type": "function",
      "signature": "0xc8c01a55"
    },
    {
      "constant": false,
      "inputs": [
        {
          "name": "toairline",
          "type": "address"
        }
      ],
      "name": "respond",
      "outputs": [],
      "payable": false,
      "stateMutability": "nonpayable",
      "type": "function",
      "signature": "0x988d1e7c"
    },
    {
      "constant": false,
      "inputs": [
        {
          "name": "toairline",
          "type": "address"
        }
      ],
      "name": "SettlePayment",
      "outputs": [],
      "payable": false,
      "stateMutability": "nonpayable",
      "type": "function",
      "signature": "0x4fd7ae0a"
    },
    {
      "constant": true,
      "inputs": [],
      "name": "BalanceDetails",
      "outputs": [
        {
          "name": "",
          "type": "uint256"
        }
      ],
      "payable": false,
      "stateMutability": "view",
      "type": "function",
      "signature": "0x585ba682"
    }
  ],
  "bytecode": "0x608060405234801561001057600080fd5b5033600160006101000a81548173ffffffffffffffffffffffffffffffffffffffff021916908373ffffffffffffffffffffffffffffffffffffffff160217905550610e15806100616000396000f3fe60806040526004361061008e576000357c0100000000000000000000000000000000000000000000000000000000900463ffffffff16806312b04a13146100935780632e4176cf146100e457806342bf64441461013b5780634fd7ae0a14610152578063585ba682146101a3578063988d1e7c146101ce578063c8c01a551461021f578063dd0df0881461027a575b600080fd5b34801561009f57600080fd5b506100e2600480360360208110156100b657600080fd5b81019080803573ffffffffffffffffffffffffffffffffffffffff1690602001909291905050506102ea565b005b3480156100f057600080fd5b506100f9610479565b604051808273ffffffffffffffffffffffffffffffffffffffff1673ffffffffffffffffffffffffffffffffffffffff16815260200191505060405180910390f35b34801561014757600080fd5b5061015061049f565b005b34801561015e57600080fd5b506101a16004803603602081101561017557600080fd5b81019080803573ffffffffffffffffffffffffffffffffffffffff169060200190929190505050610543565b005b3480156101af57600080fd5b506101b8610764565b6040518082815260200191505060405180910390f35b3480156101da57600080fd5b5061021d600480360360208110156101f157600080fd5b81019080803573ffffffffffffffffffffffffffffffffffffffff169060200190929190505050610870565b005b34801561022b57600080fd5b506102786004803603604081101561024257600080fd5b81019080803573ffffffffffffffffffffffffffffffffffffffff16906020019092919080359060200190929190505050610aa6565b005b34801561028657600080fd5b506102c96004803603602081101561029d57600080fd5b81019080803573ffffffffffffffffffffffffffffffffffffffff169060200190929190505050610db8565b60405180838152602001821515151581526020019250505060405180910390f35b600160009054906101000a900473ffffffffffffffffffffffffffffffffffffffff1673ffffffffffffffffffffffffffffffffffffffff163373ffffffffffffffffffffffffffffffffffffffff161415156103d5576040517f08c379a00000000000000000000000000000000000000000000000000000000081526004018080602001828103825260288152602001807f4f6e6c79206368616972706572736f6e2063616e20676976652072696768742081526020017f746f20766f74652e00000000000000000000000000000000000000000000000081525060400191505060405180910390fd5b60008060008373ffffffffffffffffffffffffffffffffffffffff1673ffffffffffffffffffffffffffffffffffffffff1681526020019081526020016000206000018190555060008060008373ffffffffffffffffffffffffffffffffffffffff1673ffffffffffffffffffffffffffffffffffffffff16815260200190815260200160002060010160006101000a81548160ff02191690831515021790555050565b600160009054906101000a900473ffffffffffffffffffffffffffffffffffffffff1681565b6113886000803373ffffffffffffffffffffffffffffffffffffffff1673ffffffffffffffffffffffffffffffffffffffff1681526020019081526020016000206000018190555060016000803373ffffffffffffffffffffffffffffffffffffffff1673ffffffffffffffffffffffffffffffffffffffff16815260200190815260200160002060010160006101000a81548160ff021916908315150217905550565b6000803373ffffffffffffffffffffffffffffffffffffffff1673ffffffffffffffffffffffffffffffffffffffff16815260200190815260200160002060020160008273ffffffffffffffffffffffffffffffffffffffff1673ffffffffffffffffffffffffffffffffffffffff168152602001908152602001600020546000803373ffffffffffffffffffffffffffffffffffffffff1673ffffffffffffffffffffffffffffffffffffffff168152602001908152602001600020600001600082825401925050819055506000803373ffffffffffffffffffffffffffffffffffffffff1673ffffffffffffffffffffffffffffffffffffffff16815260200190815260200160002060020160008273ffffffffffffffffffffffffffffffffffffffff1673ffffffffffffffffffffffffffffffffffffffff168152602001908152602001600020546000808373ffffffffffffffffffffffffffffffffffffffff1673ffffffffffffffffffffffffffffffffffffffff1681526020019081526020016000206000016000828254039250508190555060008060003373ffffffffffffffffffffffffffffffffffffffff1673ffffffffffffffffffffffffffffffffffffffff16815260200190815260200160002060020160008373ffffffffffffffffffffffffffffffffffffffff1673ffffffffffffffffffffffffffffffffffffffff1681526020019081526020016000208190555050565b60008060003373ffffffffffffffffffffffffffffffffffffffff1673ffffffffffffffffffffffffffffffffffffffff16815260200190815260200160002060010160009054906101000a900460ff161515610829576040517f08c379a00000000000000000000000000000000000000000000000000000000081526004018080602001828103825260208152602001807f53656e64657220446964206e6f74205265676973746572204163636f756e742e81525060200191505060405180910390fd5b6000803373ffffffffffffffffffffffffffffffffffffffff1673ffffffffffffffffffffffffffffffffffffffff16815260200190815260200160002060000154905090565b6000803373ffffffffffffffffffffffffffffffffffffffff1673ffffffffffffffffffffffffffffffffffffffff16815260200190815260200160002060010160009054906101000a900460ff161515610933576040517f08c379a00000000000000000000000000000000000000000000000000000000081526004018080602001828103825260208152602001807f53656e64657220446964206e6f74205265676973746572204163636f756e742e81525060200191505060405180910390fd5b6000808273ffffffffffffffffffffffffffffffffffffffff1673ffffffffffffffffffffffffffffffffffffffff16815260200190815260200160002060010160009054906101000a900460ff161515610a1c576040517f08c379a00000000000000000000000000000000000000000000000000000000081526004018080602001828103825260228152602001807f526563656976657220646964206e6f74207265676973746572206163636f756e81526020017f742e00000000000000000000000000000000000000000000000000000000000081525060400191505060405180910390fd5b6000803373ffffffffffffffffffffffffffffffffffffffff1673ffffffffffffffffffffffffffffffffffffffff168152602001908152602001600020600001546000803373ffffffffffffffffffffffffffffffffffffffff1673ffffffffffffffffffffffffffffffffffffffff1681526020019081526020016000206000018190555050565b6000803373ffffffffffffffffffffffffffffffffffffffff1673ffffffffffffffffffffffffffffffffffffffff16815260200190815260200160002060010160009054906101000a900460ff161515610b69576040517f08c379a00000000000000000000000000000000000000000000000000000000081526004018080602001828103825260208152602001807f53656e64657220446964206e6f74205265676973746572204163636f756e742e81525060200191505060405180910390fd5b6000808373ffffffffffffffffffffffffffffffffffffffff1673ffffffffffffffffffffffffffffffffffffffff16815260200190815260200160002060010160009054906101000a900460ff161515610c52576040517f08c379a00000000000000000000000000000000000000000000000000000000081526004018080602001828103825260228152602001807f526563656976657220646964206e6f74207265676973746572206163636f756e81526020017f742e00000000000000000000000000000000000000000000000000000000000081525060400191505060405180910390fd5b6000803373ffffffffffffffffffffffffffffffffffffffff1673ffffffffffffffffffffffffffffffffffffffff168152602001908152602001600020600001548111151515610d31576040517f08c379a00000000000000000000000000000000000000000000000000000000081526004018080602001828103825260228152602001807f6e6f7420656e6f7567687420616d6f756e742066726f6d207468652073656e6481526020017f657200000000000000000000000000000000000000000000000000000000000081525060400191505060405180910390fd5b806000808473ffffffffffffffffffffffffffffffffffffffff1673ffffffffffffffffffffffffffffffffffffffff16815260200190815260200160002060020160003373ffffffffffffffffffffffffffffffffffffffff1673ffffffffffffffffffffffffffffffffffffffff168152602001908152602001600020819055505050565b60006020528060005260406000206000915090508060000154908060010160009054906101000a900460ff1690508256fea165627a7a72305820ecc83d78f00a5debc7aa9132672275ad0b2e8c3409da7ca6d139def37cc946e20029",
  "source": "pragma solidity >=0.4.22 <0.6.0;\n\ncontract Airline{\n   \n    struct EachAirline{\n        uint balances;\n        bool RegisterorNot;\n        mapping (address => uint) request_address_Price;\n    }\n    mapping (address => EachAirline)  public Airlines;\n    address public chairperson;\n\n    constructor() public {\n        chairperson = msg.sender;\n    }\n\n    function RegisterAirline () public {\n        Airlines[msg.sender].balances = 5000;\n        Airlines[msg.sender].RegisterorNot = true;\n    }\n    function UnRegisterAirline (address unregisterairline) public{\n        require(\n            msg.sender == chairperson,\n            \"Only chairperson can give right to vote.\"\n        );\n        Airlines[unregisterairline].balances = 0;\n        Airlines[unregisterairline].RegisterorNot = false;\n    }\n    function request(address toairline, uint amount) public {\n        require(Airlines[msg.sender].RegisterorNot,\"Sender Did not Register Account.\");\n        require(Airlines[toairline].RegisterorNot,\"Receiver did not register account.\");\n        require(amount <= Airlines[msg.sender].balances,\"not enought amount from the sender\");\n        Airlines[toairline].request_address_Price[msg.sender] = amount;\n    }\n    function respond(address toairline) public {\n        require(Airlines[msg.sender].RegisterorNot,\"Sender Did not Register Account.\");\n        require(Airlines[toairline].RegisterorNot,\"Receiver did not register account.\");\n        Airlines[msg.sender].balances = Airlines[msg.sender].balances;\n    }\n    function SettlePayment(address toairline) public {\n        Airlines[msg.sender].balances += Airlines[msg.sender].request_address_Price[toairline];\n        Airlines[toairline].balances -= Airlines[msg.sender].request_address_Price[toairline];\n        Airlines[msg.sender].request_address_Price[toairline] = 0;\n    }\n    function BalanceDetails() public view returns (uint){\n        require(Airlines[msg.sender].RegisterorNot,\"Sender Did not Register Account.\");\n        return Airlines[msg.sender].balances; \n    }\n\n}",
  "sourcePath": "/Users/Jack/Desktop/CSE410lab2/contracts/Airline.sol",
  "compiler": {
    "name": "solc",
    "version": "0.5.0+commit.1d4f565a.Emscripten.clang"
  },
  "schemaVersion": "3.0.6",
  "updatedAt": "2019-05-09T03:02:56.004Z",
  "devdoc": {
    "methods": {}
  },
  "userdoc": {
    "methods": {}
  }
}